{
  "contractName": "HyperboxStateToken",
  "abi": [
    {
      "inputs": [],
      "stateMutability": "nonpayable",
      "type": "constructor"
    },
    {
      "anonymous": false,
      "inputs": [
        {
          "indexed": true,
          "internalType": "address",
          "name": "owner",
          "type": "address"
        },
        {
          "indexed": true,
          "internalType": "address",
          "name": "approved",
          "type": "address"
        },
        {
          "indexed": true,
          "internalType": "uint256",
          "name": "tokenId",
          "type": "uint256"
        }
      ],
      "name": "Approval",
      "type": "event"
    },
    {
      "anonymous": false,
      "inputs": [
        {
          "indexed": true,
          "internalType": "address",
          "name": "owner",
          "type": "address"
        },
        {
          "indexed": true,
          "internalType": "address",
          "name": "operator",
          "type": "address"
        },
        {
          "indexed": false,
          "internalType": "bool",
          "name": "approved",
          "type": "bool"
        }
      ],
      "name": "ApprovalForAll",
      "type": "event"
    },
    {
      "anonymous": false,
      "inputs": [
        {
          "indexed": true,
          "internalType": "address",
          "name": "previousOwner",
          "type": "address"
        },
        {
          "indexed": true,
          "internalType": "address",
          "name": "newOwner",
          "type": "address"
        }
      ],
      "name": "OwnershipTransferred",
      "type": "event"
    },
    {
      "anonymous": false,
      "inputs": [
        {
          "indexed": true,
          "internalType": "uint256",
          "name": "tokenId",
          "type": "uint256"
        }
      ],
      "name": "StateChanged",
      "type": "event"
    },
    {
      "anonymous": false,
      "inputs": [
        {
          "indexed": true,
          "internalType": "address",
          "name": "from",
          "type": "address"
        },
        {
          "indexed": true,
          "internalType": "address",
          "name": "to",
          "type": "address"
        },
        {
          "indexed": true,
          "internalType": "uint256",
          "name": "tokenId",
          "type": "uint256"
        }
      ],
      "name": "Transfer",
      "type": "event"
    },
    {
      "inputs": [
        {
          "internalType": "address",
          "name": "to",
          "type": "address"
        },
        {
          "internalType": "uint256",
          "name": "tokenId",
          "type": "uint256"
        }
      ],
      "name": "approve",
      "outputs": [],
      "stateMutability": "nonpayable",
      "type": "function"
    },
    {
      "inputs": [
        {
          "internalType": "address",
          "name": "owner",
          "type": "address"
        }
      ],
      "name": "balanceOf",
      "outputs": [
        {
          "internalType": "uint256",
          "name": "",
          "type": "uint256"
        }
      ],
      "stateMutability": "view",
      "type": "function",
      "constant": true
    },
    {
      "inputs": [
        {
          "internalType": "uint256",
          "name": "tokenId",
          "type": "uint256"
        }
      ],
      "name": "burn",
      "outputs": [],
      "stateMutability": "nonpayable",
      "type": "function"
    },
    {
      "inputs": [
        {
          "internalType": "uint256",
          "name": "tokenId",
          "type": "uint256"
        }
      ],
      "name": "getApproved",
      "outputs": [
        {
          "internalType": "address",
          "name": "",
          "type": "address"
        }
      ],
      "stateMutability": "view",
      "type": "function",
      "constant": true
    },
    {
      "inputs": [
        {
          "internalType": "address",
          "name": "owner",
          "type": "address"
        },
        {
          "internalType": "address",
          "name": "operator",
          "type": "address"
        }
      ],
      "name": "isApprovedForAll",
      "outputs": [
        {
          "internalType": "bool",
          "name": "",
          "type": "bool"
        }
      ],
      "stateMutability": "view",
      "type": "function",
      "constant": true
    },
    {
      "inputs": [],
      "name": "name",
      "outputs": [
        {
          "internalType": "string",
          "name": "",
          "type": "string"
        }
      ],
      "stateMutability": "view",
      "type": "function",
      "constant": true
    },
    {
      "inputs": [],
      "name": "owner",
      "outputs": [
        {
          "internalType": "address",
          "name": "",
          "type": "address"
        }
      ],
      "stateMutability": "view",
      "type": "function",
      "constant": true
    },
    {
      "inputs": [
        {
          "internalType": "uint256",
          "name": "tokenId",
          "type": "uint256"
        }
      ],
      "name": "ownerOf",
      "outputs": [
        {
          "internalType": "address",
          "name": "",
          "type": "address"
        }
      ],
      "stateMutability": "view",
      "type": "function",
      "constant": true
    },
    {
      "inputs": [],
      "name": "renounceOwnership",
      "outputs": [],
      "stateMutability": "nonpayable",
      "type": "function"
    },
    {
      "inputs": [
        {
          "internalType": "address",
          "name": "from",
          "type": "address"
        },
        {
          "internalType": "address",
          "name": "to",
          "type": "address"
        },
        {
          "internalType": "uint256",
          "name": "tokenId",
          "type": "uint256"
        }
      ],
      "name": "safeTransferFrom",
      "outputs": [],
      "stateMutability": "nonpayable",
      "type": "function"
    },
    {
      "inputs": [
        {
          "internalType": "address",
          "name": "from",
          "type": "address"
        },
        {
          "internalType": "address",
          "name": "to",
          "type": "address"
        },
        {
          "internalType": "uint256",
          "name": "tokenId",
          "type": "uint256"
        },
        {
          "internalType": "bytes",
          "name": "data",
          "type": "bytes"
        }
      ],
      "name": "safeTransferFrom",
      "outputs": [],
      "stateMutability": "nonpayable",
      "type": "function"
    },
    {
      "inputs": [
        {
          "internalType": "address",
          "name": "operator",
          "type": "address"
        },
        {
          "internalType": "bool",
          "name": "approved",
          "type": "bool"
        }
      ],
      "name": "setApprovalForAll",
      "outputs": [],
      "stateMutability": "nonpayable",
      "type": "function"
    },
    {
      "inputs": [],
      "name": "symbol",
      "outputs": [
        {
          "internalType": "string",
          "name": "",
          "type": "string"
        }
      ],
      "stateMutability": "view",
      "type": "function",
      "constant": true
    },
    {
      "inputs": [
        {
          "internalType": "uint256",
          "name": "index",
          "type": "uint256"
        }
      ],
      "name": "tokenByIndex",
      "outputs": [
        {
          "internalType": "uint256",
          "name": "",
          "type": "uint256"
        }
      ],
      "stateMutability": "view",
      "type": "function",
      "constant": true
    },
    {
      "inputs": [
        {
          "internalType": "address",
          "name": "owner",
          "type": "address"
        },
        {
          "internalType": "uint256",
          "name": "index",
          "type": "uint256"
        }
      ],
      "name": "tokenOfOwnerByIndex",
      "outputs": [
        {
          "internalType": "uint256",
          "name": "",
          "type": "uint256"
        }
      ],
      "stateMutability": "view",
      "type": "function",
      "constant": true
    },
    {
      "inputs": [],
      "name": "totalSupply",
      "outputs": [
        {
          "internalType": "uint256",
          "name": "",
          "type": "uint256"
        }
      ],
      "stateMutability": "view",
      "type": "function",
      "constant": true
    },
    {
      "inputs": [
        {
          "internalType": "address",
          "name": "from",
          "type": "address"
        },
        {
          "internalType": "address",
          "name": "to",
          "type": "address"
        },
        {
          "internalType": "uint256",
          "name": "tokenId",
          "type": "uint256"
        }
      ],
      "name": "transferFrom",
      "outputs": [],
      "stateMutability": "nonpayable",
      "type": "function"
    },
    {
      "inputs": [
        {
          "internalType": "address",
          "name": "newOwner",
          "type": "address"
        }
      ],
      "name": "transferOwnership",
      "outputs": [],
      "stateMutability": "nonpayable",
      "type": "function"
    },
    {
      "inputs": [
        {
          "internalType": "address",
          "name": "to",
          "type": "address"
        }
      ],
      "name": "mint",
      "outputs": [],
      "stateMutability": "nonpayable",
      "type": "function"
    },
    {
      "inputs": [
        {
          "internalType": "bytes4",
          "name": "interfaceId",
          "type": "bytes4"
        }
      ],
      "name": "supportsInterface",
      "outputs": [
        {
          "internalType": "bool",
          "name": "",
          "type": "bool"
        }
      ],
      "stateMutability": "view",
      "type": "function",
      "constant": true
    },
    {
      "inputs": [
        {
          "internalType": "uint256",
          "name": "tokenId",
          "type": "uint256"
        }
      ],
      "name": "tokenURI",
      "outputs": [
        {
          "internalType": "string",
          "name": "",
          "type": "string"
        }
      ],
      "stateMutability": "view",
      "type": "function",
      "constant": true
    },
    {
      "inputs": [
        {
          "internalType": "uint256",
          "name": "tokenId",
          "type": "uint256"
        },
        {
          "internalType": "string",
          "name": "state",
          "type": "string"
        }
      ],
      "name": "setState",
      "outputs": [],
      "stateMutability": "nonpayable",
      "type": "function"
    },
    {
      "inputs": [
        {
          "internalType": "uint256",
          "name": "tokenId",
          "type": "uint256"
        }
      ],
      "name": "getState",
      "outputs": [
        {
          "internalType": "string",
          "name": "",
          "type": "string"
        }
      ],
      "stateMutability": "view",
      "type": "function",
      "constant": true
    }
  ],
  "bytecode": "0x60806040523480156200001157600080fd5b506040518060400160405280600d81526020017f4879706572626f785374617465000000000000000000000000000000000000008152506040518060400160405280600481526020017f4842535400000000000000000000000000000000000000000000000000000000815250816000908051906020019062000096929190620001a6565b508060019080519060200190620000af929190620001a6565b505050620000d2620000c6620000d860201b60201c565b620000e060201b60201c565b620002ba565b600033905090565b6000600a60009054906101000a900473ffffffffffffffffffffffffffffffffffffffff16905081600a60006101000a81548173ffffffffffffffffffffffffffffffffffffffff021916908373ffffffffffffffffffffffffffffffffffffffff1602179055508173ffffffffffffffffffffffffffffffffffffffff168173ffffffffffffffffffffffffffffffffffffffff167f8be0079c531659141344cd1fd0a4f28419497f9722a3daafe3b4186f6b6457e060405160405180910390a35050565b828054620001b49062000285565b90600052602060002090601f016020900481019282620001d8576000855562000224565b82601f10620001f357805160ff191683800117855562000224565b8280016001018555821562000224579182015b828111156200022357825182559160200191906001019062000206565b5b50905062000233919062000237565b5090565b5b808211156200025257600081600090555060010162000238565b5090565b7f4e487b7100000000000000000000000000000000000000000000000000000000600052602260045260246000fd5b600060028204905060018216806200029e57607f821691505b602082108103620002b457620002b362000256565b5b50919050565b6139d580620002ca6000396000f3fe608060405234801561001057600080fd5b506004361061014d5760003560e01c80636352211e116100c3578063a22cb4651161007c578063a22cb465146103b0578063ab6cbfe0146103cc578063b88d4fde146103e8578063c87b56dd14610404578063e985e9c514610434578063f2fde38b146104645761014d565b80636352211e146102ee5780636a6278421461031e57806370a082311461033a578063715018a61461036a5780638da5cb5b1461037457806395d89b41146103925761014d565b806323b872dd1161011557806323b872dd1461020a5780632f745c591461022657806342842e0e1461025657806342966c681461027257806344c9af281461028e5780634f6ccce7146102be5761014d565b806301ffc9a71461015257806306fdde0314610182578063081812fc146101a0578063095ea7b3146101d057806318160ddd146101ec575b600080fd5b61016c6004803603810190610167919061261a565b610480565b6040516101799190612662565b60405180910390f35b61018a610492565b6040516101979190612716565b60405180910390f35b6101ba60048036038101906101b5919061276e565b610524565b6040516101c791906127dc565b60405180910390f35b6101ea60048036038101906101e59190612823565b61056a565b005b6101f4610681565b6040516102019190612872565b60405180910390f35b610224600480360381019061021f919061288d565b61068e565b005b610240600480360381019061023b9190612823565b6106ee565b60405161024d9190612872565b60405180910390f35b610270600480360381019061026b919061288d565b610793565b005b61028c6004803603810190610287919061276e565b6107b3565b005b6102a860048036038101906102a3919061276e565b61080f565b6040516102b59190612716565b60405180910390f35b6102d860048036038101906102d3919061276e565b6108fc565b6040516102e59190612872565b60405180910390f35b6103086004803603810190610303919061276e565b61096d565b60405161031591906127dc565b60405180910390f35b610338600480360381019061033391906128e0565b6109f3565b005b610354600480360381019061034f91906128e0565b610a19565b6040516103619190612872565b60405180910390f35b610372610ad0565b005b61037c610ae4565b60405161038991906127dc565b60405180910390f35b61039a610b0e565b6040516103a79190612716565b60405180910390f35b6103ca60048036038101906103c59190612939565b610ba0565b005b6103e660048036038101906103e191906129de565b610bb6565b005b61040260048036038101906103fd9190612b6e565b610cd0565b005b61041e6004803603810190610419919061276e565b610d32565b60405161042b9190612716565b60405180910390f35b61044e60048036038101906104499190612bf1565b610db5565b60405161045b9190612662565b60405180910390f35b61047e600480360381019061047991906128e0565b610e49565b005b600061048b82610ecc565b9050919050565b6060600080546104a190612c60565b80601f01602080910402602001604051908101604052809291908181526020018280546104cd90612c60565b801561051a5780601f106104ef5761010080835404028352916020019161051a565b820191906000526020600020905b8154815290600101906020018083116104fd57829003601f168201915b5050505050905090565b600061052f82610f46565b6004600083815260200190815260200160002060009054906101000a900473ffffffffffffffffffffffffffffffffffffffff169050919050565b60006105758261096d565b90508073ffffffffffffffffffffffffffffffffffffffff168373ffffffffffffffffffffffffffffffffffffffff16036105e5576040517f08c379a00000000000000000000000000000000000000000000000000000000081526004016105dc90612d03565b60405180910390fd5b8073ffffffffffffffffffffffffffffffffffffffff16610604610f91565b73ffffffffffffffffffffffffffffffffffffffff16148061063357506106328161062d610f91565b610db5565b5b610672576040517f08c379a000000000000000000000000000000000000000000000000000000000815260040161066990612d95565b60405180910390fd5b61067c8383610f99565b505050565b6000600880549050905090565b61069f610699610f91565b82611052565b6106de576040517f08c379a00000000000000000000000000000000000000000000000000000000081526004016106d590612e27565b60405180910390fd5b6106e98383836110e7565b505050565b60006106f983610a19565b821061073a576040517f08c379a000000000000000000000000000000000000000000000000000000000815260040161073190612eb9565b60405180910390fd5b600660008473ffffffffffffffffffffffffffffffffffffffff1673ffffffffffffffffffffffffffffffffffffffff168152602001908152602001600020600083815260200190815260200160002054905092915050565b6107ae83838360405180602001604052806000815250610cd0565b505050565b6107c46107be610f91565b82611052565b610803576040517f08c379a00000000000000000000000000000000000000000000000000000000081526004016107fa90612e27565b60405180910390fd5b61080c816113e0565b50565b606061081a8261152e565b610859576040517f08c379a000000000000000000000000000000000000000000000000000000000815260040161085090612f25565b60405180910390fd5b600c6000838152602001908152602001600020805461087790612c60565b80601f01602080910402602001604051908101604052809291908181526020018280546108a390612c60565b80156108f05780601f106108c5576101008083540402835291602001916108f0565b820191906000526020600020905b8154815290600101906020018083116108d357829003601f168201915b50505050509050919050565b6000610906610681565b8210610947576040517f08c379a000000000000000000000000000000000000000000000000000000000815260040161093e90612fb7565b60405180910390fd5b6008828154811061095b5761095a612fd7565b5b90600052602060002001549050919050565b6000806109798361156f565b9050600073ffffffffffffffffffffffffffffffffffffffff168173ffffffffffffffffffffffffffffffffffffffff16036109ea576040517f08c379a00000000000000000000000000000000000000000000000000000000081526004016109e190613052565b60405180910390fd5b80915050919050565b6109fd600b6115ac565b6000610a09600b6115c2565b9050610a1582826115d0565b5050565b60008073ffffffffffffffffffffffffffffffffffffffff168273ffffffffffffffffffffffffffffffffffffffff1603610a89576040517f08c379a0000000000000000000000000000000000000000000000000000000008152600401610a80906130e4565b60405180910390fd5b600360008373ffffffffffffffffffffffffffffffffffffffff1673ffffffffffffffffffffffffffffffffffffffff168152602001908152602001600020549050919050565b610ad86115ee565b610ae2600061166c565b565b6000600a60009054906101000a900473ffffffffffffffffffffffffffffffffffffffff16905090565b606060018054610b1d90612c60565b80601f0160208091040260200160405190810160405280929190818152602001828054610b4990612c60565b8015610b965780601f10610b6b57610100808354040283529160200191610b96565b820191906000526020600020905b815481529060010190602001808311610b7957829003601f168201915b5050505050905090565b610bb2610bab610f91565b8383611732565b5050565b610bbf8361152e565b610bfe576040517f08c379a0000000000000000000000000000000000000000000000000000000008152600401610bf590612f25565b60405180910390fd5b610c06610f91565b73ffffffffffffffffffffffffffffffffffffffff16610c258461156f565b73ffffffffffffffffffffffffffffffffffffffff1614610c7b576040517f08c379a0000000000000000000000000000000000000000000000000000000008152600401610c7290613150565b60405180910390fd5b8181600c60008681526020019081526020016000209190610c9d92919061250b565b50827f3c20f49e01bfae9c61bfff26b5d8341dd8463f895dd1db3d003cada4e59506d760405160405180910390a2505050565b610ce1610cdb610f91565b83611052565b610d20576040517f08c379a0000000000000000000000000000000000000000000000000000000008152600401610d1790612e27565b60405180910390fd5b610d2c8484848461189e565b50505050565b6060610d3d8261152e565b610d7c576040517f08c379a0000000000000000000000000000000000000000000000000000000008152600401610d7390612f25565b60405180910390fd5b610d85826118fa565b610d8e836118fa565b604051602001610d9f929190613328565b6040516020818303038152906040529050919050565b6000600560008473ffffffffffffffffffffffffffffffffffffffff1673ffffffffffffffffffffffffffffffffffffffff16815260200190815260200160002060008373ffffffffffffffffffffffffffffffffffffffff1673ffffffffffffffffffffffffffffffffffffffff16815260200190815260200160002060009054906101000a900460ff16905092915050565b610e516115ee565b600073ffffffffffffffffffffffffffffffffffffffff168173ffffffffffffffffffffffffffffffffffffffff1603610ec0576040517f08c379a0000000000000000000000000000000000000000000000000000000008152600401610eb7906133e3565b60405180910390fd5b610ec98161166c565b50565b60007f780e9d63000000000000000000000000000000000000000000000000000000007bffffffffffffffffffffffffffffffffffffffffffffffffffffffff1916827bffffffffffffffffffffffffffffffffffffffffffffffffffffffff19161480610f3f5750610f3e826119c8565b5b9050919050565b610f4f8161152e565b610f8e576040517f08c379a0000000000000000000000000000000000000000000000000000000008152600401610f8590613052565b60405180910390fd5b50565b600033905090565b816004600083815260200190815260200160002060006101000a81548173ffffffffffffffffffffffffffffffffffffffff021916908373ffffffffffffffffffffffffffffffffffffffff160217905550808273ffffffffffffffffffffffffffffffffffffffff1661100c8361096d565b73ffffffffffffffffffffffffffffffffffffffff167f8c5be1e5ebec7d5bd14f71427d1e84f3dd0314c0f7b2291e5b200ac8c7c3b92560405160405180910390a45050565b60008061105e8361096d565b90508073ffffffffffffffffffffffffffffffffffffffff168473ffffffffffffffffffffffffffffffffffffffff1614806110a0575061109f8185610db5565b5b806110de57508373ffffffffffffffffffffffffffffffffffffffff166110c684610524565b73ffffffffffffffffffffffffffffffffffffffff16145b91505092915050565b8273ffffffffffffffffffffffffffffffffffffffff166111078261096d565b73ffffffffffffffffffffffffffffffffffffffff161461115d576040517f08c379a000000000000000000000000000000000000000000000000000000000815260040161115490613475565b60405180910390fd5b600073ffffffffffffffffffffffffffffffffffffffff168273ffffffffffffffffffffffffffffffffffffffff16036111cc576040517f08c379a00000000000000000000000000000000000000000000000000000000081526004016111c390613507565b60405180910390fd5b6111d98383836001611aaa565b8273ffffffffffffffffffffffffffffffffffffffff166111f98261096d565b73ffffffffffffffffffffffffffffffffffffffff161461124f576040517f08c379a000000000000000000000000000000000000000000000000000000000815260040161124690613475565b60405180910390fd5b6004600082815260200190815260200160002060006101000a81549073ffffffffffffffffffffffffffffffffffffffff02191690556001600360008573ffffffffffffffffffffffffffffffffffffffff1673ffffffffffffffffffffffffffffffffffffffff168152602001908152602001600020600082825403925050819055506001600360008473ffffffffffffffffffffffffffffffffffffffff1673ffffffffffffffffffffffffffffffffffffffff16815260200190815260200160002060008282540192505081905550816002600083815260200190815260200160002060006101000a81548173ffffffffffffffffffffffffffffffffffffffff021916908373ffffffffffffffffffffffffffffffffffffffff160217905550808273ffffffffffffffffffffffffffffffffffffffff168473ffffffffffffffffffffffffffffffffffffffff167fddf252ad1be2c89b69c2b068fc378daa952ba7f163c4a11628f55a4df523b3ef60405160405180910390a46113db8383836001611abc565b505050565b60006113eb8261096d565b90506113fb816000846001611aaa565b6114048261096d565b90506004600083815260200190815260200160002060006101000a81549073ffffffffffffffffffffffffffffffffffffffff02191690556001600360008373ffffffffffffffffffffffffffffffffffffffff1673ffffffffffffffffffffffffffffffffffffffff168152602001908152602001600020600082825403925050819055506002600083815260200190815260200160002060006101000a81549073ffffffffffffffffffffffffffffffffffffffff021916905581600073ffffffffffffffffffffffffffffffffffffffff168273ffffffffffffffffffffffffffffffffffffffff167fddf252ad1be2c89b69c2b068fc378daa952ba7f163c4a11628f55a4df523b3ef60405160405180910390a461152a816000846001611abc565b5050565b60008073ffffffffffffffffffffffffffffffffffffffff166115508361156f565b73ffffffffffffffffffffffffffffffffffffffff1614159050919050565b60006002600083815260200190815260200160002060009054906101000a900473ffffffffffffffffffffffffffffffffffffffff169050919050565b6001816000016000828254019250508190555050565b600081600001549050919050565b6115ea828260405180602001604052806000815250611ac2565b5050565b6115f6610f91565b73ffffffffffffffffffffffffffffffffffffffff16611614610ae4565b73ffffffffffffffffffffffffffffffffffffffff161461166a576040517f08c379a000000000000000000000000000000000000000000000000000000000815260040161166190613573565b60405180910390fd5b565b6000600a60009054906101000a900473ffffffffffffffffffffffffffffffffffffffff16905081600a60006101000a81548173ffffffffffffffffffffffffffffffffffffffff021916908373ffffffffffffffffffffffffffffffffffffffff1602179055508173ffffffffffffffffffffffffffffffffffffffff168173ffffffffffffffffffffffffffffffffffffffff167f8be0079c531659141344cd1fd0a4f28419497f9722a3daafe3b4186f6b6457e060405160405180910390a35050565b8173ffffffffffffffffffffffffffffffffffffffff168373ffffffffffffffffffffffffffffffffffffffff16036117a0576040517f08c379a0000000000000000000000000000000000000000000000000000000008152600401611797906135df565b60405180910390fd5b80600560008573ffffffffffffffffffffffffffffffffffffffff1673ffffffffffffffffffffffffffffffffffffffff16815260200190815260200160002060008473ffffffffffffffffffffffffffffffffffffffff1673ffffffffffffffffffffffffffffffffffffffff16815260200190815260200160002060006101000a81548160ff0219169083151502179055508173ffffffffffffffffffffffffffffffffffffffff168373ffffffffffffffffffffffffffffffffffffffff167f17307eab39ab6107e8899845ad3d59bd9653f200f220920489ca2b5937696c31836040516118919190612662565b60405180910390a3505050565b6118a98484846110e7565b6118b584848484611b1d565b6118f4576040517f08c379a00000000000000000000000000000000000000000000000000000000081526004016118eb90613671565b60405180910390fd5b50505050565b60606000600161190984611ca4565b01905060008167ffffffffffffffff81111561192857611927612a43565b5b6040519080825280601f01601f19166020018201604052801561195a5781602001600182028036833780820191505090505b509050600082602001820190505b6001156119bd578080600190039150507f3031323334353637383961626364656600000000000000000000000000000000600a86061a8153600a85816119b1576119b0613691565b5b04945060008503611968575b819350505050919050565b60007f80ac58cd000000000000000000000000000000000000000000000000000000007bffffffffffffffffffffffffffffffffffffffffffffffffffffffff1916827bffffffffffffffffffffffffffffffffffffffffffffffffffffffff19161480611a9357507f5b5e139f000000000000000000000000000000000000000000000000000000007bffffffffffffffffffffffffffffffffffffffffffffffffffffffff1916827bffffffffffffffffffffffffffffffffffffffffffffffffffffffff1916145b80611aa35750611aa282611df7565b5b9050919050565b611ab684848484611e61565b50505050565b50505050565b611acc8383611fbf565b611ad96000848484611b1d565b611b18576040517f08c379a0000000000000000000000000000000000000000000000000000000008152600401611b0f90613671565b60405180910390fd5b505050565b6000611b3e8473ffffffffffffffffffffffffffffffffffffffff166121dc565b15611c97578373ffffffffffffffffffffffffffffffffffffffff1663150b7a02611b67610f91565b8786866040518563ffffffff1660e01b8152600401611b899493929190613715565b6020604051808303816000875af1925050508015611bc557506040513d601f19601f82011682018060405250810190611bc29190613776565b60015b611c47573d8060008114611bf5576040519150601f19603f3d011682016040523d82523d6000602084013e611bfa565b606091505b506000815103611c3f576040517f08c379a0000000000000000000000000000000000000000000000000000000008152600401611c3690613671565b60405180910390fd5b805181602001fd5b63150b7a0260e01b7bffffffffffffffffffffffffffffffffffffffffffffffffffffffff1916817bffffffffffffffffffffffffffffffffffffffffffffffffffffffff191614915050611c9c565b600190505b949350505050565b600080600090507a184f03e93ff9f4daa797ed6e38ed64bf6a1f0100000000000000008310611d02577a184f03e93ff9f4daa797ed6e38ed64bf6a1f0100000000000000008381611cf857611cf7613691565b5b0492506040810190505b6d04ee2d6d415b85acef81000000008310611d3f576d04ee2d6d415b85acef81000000008381611d3557611d34613691565b5b0492506020810190505b662386f26fc100008310611d6e57662386f26fc100008381611d6457611d63613691565b5b0492506010810190505b6305f5e1008310611d97576305f5e1008381611d8d57611d8c613691565b5b0492506008810190505b6127108310611dbc576127108381611db257611db1613691565b5b0492506004810190505b60648310611ddf5760648381611dd557611dd4613691565b5b0492506002810190505b600a8310611dee576001810190505b80915050919050565b60007f01ffc9a7000000000000000000000000000000000000000000000000000000007bffffffffffffffffffffffffffffffffffffffffffffffffffffffff1916827bffffffffffffffffffffffffffffffffffffffffffffffffffffffff1916149050919050565b611e6d848484846121ff565b6001811115611eb1576040517f08c379a0000000000000000000000000000000000000000000000000000000008152600401611ea890613815565b60405180910390fd5b6000829050600073ffffffffffffffffffffffffffffffffffffffff168573ffffffffffffffffffffffffffffffffffffffff1603611ef857611ef381612205565b611f37565b8373ffffffffffffffffffffffffffffffffffffffff168573ffffffffffffffffffffffffffffffffffffffff1614611f3657611f35858261224e565b5b5b600073ffffffffffffffffffffffffffffffffffffffff168473ffffffffffffffffffffffffffffffffffffffff1603611f7957611f74816123bb565b611fb8565b8473ffffffffffffffffffffffffffffffffffffffff168473ffffffffffffffffffffffffffffffffffffffff1614611fb757611fb6848261248c565b5b5b5050505050565b600073ffffffffffffffffffffffffffffffffffffffff168273ffffffffffffffffffffffffffffffffffffffff160361202e576040517f08c379a000000000000000000000000000000000000000000000000000000000815260040161202590613881565b60405180910390fd5b6120378161152e565b15612077576040517f08c379a000000000000000000000000000000000000000000000000000000000815260040161206e906138ed565b60405180910390fd5b612085600083836001611aaa565b61208e8161152e565b156120ce576040517f08c379a00000000000000000000000000000000000000000000000000000000081526004016120c5906138ed565b60405180910390fd5b6001600360008473ffffffffffffffffffffffffffffffffffffffff1673ffffffffffffffffffffffffffffffffffffffff16815260200190815260200160002060008282540192505081905550816002600083815260200190815260200160002060006101000a81548173ffffffffffffffffffffffffffffffffffffffff021916908373ffffffffffffffffffffffffffffffffffffffff160217905550808273ffffffffffffffffffffffffffffffffffffffff16600073ffffffffffffffffffffffffffffffffffffffff167fddf252ad1be2c89b69c2b068fc378daa952ba7f163c4a11628f55a4df523b3ef60405160405180910390a46121d8600083836001611abc565b5050565b6000808273ffffffffffffffffffffffffffffffffffffffff163b119050919050565b50505050565b6008805490506009600083815260200190815260200160002081905550600881908060018154018082558091505060019003906000526020600020016000909190919091505550565b6000600161225b84610a19565b612265919061393c565b905060006007600084815260200190815260200160002054905081811461234a576000600660008673ffffffffffffffffffffffffffffffffffffffff1673ffffffffffffffffffffffffffffffffffffffff168152602001908152602001600020600084815260200190815260200160002054905080600660008773ffffffffffffffffffffffffffffffffffffffff1673ffffffffffffffffffffffffffffffffffffffff168152602001908152602001600020600084815260200190815260200160002081905550816007600083815260200190815260200160002081905550505b6007600084815260200190815260200160002060009055600660008573ffffffffffffffffffffffffffffffffffffffff1673ffffffffffffffffffffffffffffffffffffffff16815260200190815260200160002060008381526020019081526020016000206000905550505050565b600060016008805490506123cf919061393c565b90506000600960008481526020019081526020016000205490506000600883815481106123ff576123fe612fd7565b5b90600052602060002001549050806008838154811061242157612420612fd7565b5b9060005260206000200181905550816009600083815260200190815260200160002081905550600960008581526020019081526020016000206000905560088054806124705761246f613970565b5b6001900381819060005260206000200160009055905550505050565b600061249783610a19565b905081600660008573ffffffffffffffffffffffffffffffffffffffff1673ffffffffffffffffffffffffffffffffffffffff168152602001908152602001600020600083815260200190815260200160002081905550806007600084815260200190815260200160002081905550505050565b82805461251790612c60565b90600052602060002090601f0160209004810192826125395760008555612580565b82601f1061255257803560ff1916838001178555612580565b82800160010185558215612580579182015b8281111561257f578235825591602001919060010190612564565b5b50905061258d9190612591565b5090565b5b808211156125aa576000816000905550600101612592565b5090565b6000604051905090565b600080fd5b600080fd5b60007fffffffff0000000000000000000000000000000000000000000000000000000082169050919050565b6125f7816125c2565b811461260257600080fd5b50565b600081359050612614816125ee565b92915050565b6000602082840312156126305761262f6125b8565b5b600061263e84828501612605565b91505092915050565b60008115159050919050565b61265c81612647565b82525050565b60006020820190506126776000830184612653565b92915050565b600081519050919050565b600082825260208201905092915050565b60005b838110156126b757808201518184015260208101905061269c565b838111156126c6576000848401525b50505050565b6000601f19601f8301169050919050565b60006126e88261267d565b6126f28185612688565b9350612702818560208601612699565b61270b816126cc565b840191505092915050565b6000602082019050818103600083015261273081846126dd565b905092915050565b6000819050919050565b61274b81612738565b811461275657600080fd5b50565b60008135905061276881612742565b92915050565b600060208284031215612784576127836125b8565b5b600061279284828501612759565b91505092915050565b600073ffffffffffffffffffffffffffffffffffffffff82169050919050565b60006127c68261279b565b9050919050565b6127d6816127bb565b82525050565b60006020820190506127f160008301846127cd565b92915050565b612800816127bb565b811461280b57600080fd5b50565b60008135905061281d816127f7565b92915050565b6000806040838503121561283a576128396125b8565b5b60006128488582860161280e565b925050602061285985828601612759565b9150509250929050565b61286c81612738565b82525050565b60006020820190506128876000830184612863565b92915050565b6000806000606084860312156128a6576128a56125b8565b5b60006128b48682870161280e565b93505060206128c58682870161280e565b92505060406128d686828701612759565b9150509250925092565b6000602082840312156128f6576128f56125b8565b5b60006129048482850161280e565b91505092915050565b61291681612647565b811461292157600080fd5b50565b6000813590506129338161290d565b92915050565b600080604083850312156129505761294f6125b8565b5b600061295e8582860161280e565b925050602061296f85828601612924565b9150509250929050565b600080fd5b600080fd5b600080fd5b60008083601f84011261299e5761299d612979565b5b8235905067ffffffffffffffff8111156129bb576129ba61297e565b5b6020830191508360018202830111156129d7576129d6612983565b5b9250929050565b6000806000604084860312156129f7576129f66125b8565b5b6000612a0586828701612759565b935050602084013567ffffffffffffffff811115612a2657612a256125bd565b5b612a3286828701612988565b92509250509250925092565b600080fd5b7f4e487b7100000000000000000000000000000000000000000000000000000000600052604160045260246000fd5b612a7b826126cc565b810181811067ffffffffffffffff82111715612a9a57612a99612a43565b5b80604052505050565b6000612aad6125ae565b9050612ab98282612a72565b919050565b600067ffffffffffffffff821115612ad957612ad8612a43565b5b612ae2826126cc565b9050602081019050919050565b82818337600083830152505050565b6000612b11612b0c84612abe565b612aa3565b905082815260208101848484011115612b2d57612b2c612a3e565b5b612b38848285612aef565b509392505050565b600082601f830112612b5557612b54612979565b5b8135612b65848260208601612afe565b91505092915050565b60008060008060808587031215612b8857612b876125b8565b5b6000612b968782880161280e565b9450506020612ba78782880161280e565b9350506040612bb887828801612759565b925050606085013567ffffffffffffffff811115612bd957612bd86125bd565b5b612be587828801612b40565b91505092959194509250565b60008060408385031215612c0857612c076125b8565b5b6000612c168582860161280e565b9250506020612c278582860161280e565b9150509250929050565b7f4e487b7100000000000000000000000000000000000000000000000000000000600052602260045260246000fd5b60006002820490506001821680612c7857607f821691505b602082108103612c8b57612c8a612c31565b5b50919050565b7f4552433732313a20617070726f76616c20746f2063757272656e74206f776e6560008201527f7200000000000000000000000000000000000000000000000000000000000000602082015250565b6000612ced602183612688565b9150612cf882612c91565b604082019050919050565b60006020820190508181036000830152612d1c81612ce0565b9050919050565b7f4552433732313a20617070726f76652063616c6c6572206973206e6f7420746f60008201527f6b656e206f776e6572206f7220617070726f76656420666f7220616c6c000000602082015250565b6000612d7f603d83612688565b9150612d8a82612d23565b604082019050919050565b60006020820190508181036000830152612dae81612d72565b9050919050565b7f4552433732313a2063616c6c6572206973206e6f7420746f6b656e206f776e6560008201527f72206f7220617070726f76656400000000000000000000000000000000000000602082015250565b6000612e11602d83612688565b9150612e1c82612db5565b604082019050919050565b60006020820190508181036000830152612e4081612e04565b9050919050565b7f455243373231456e756d657261626c653a206f776e657220696e646578206f7560008201527f74206f6620626f756e6473000000000000000000000000000000000000000000602082015250565b6000612ea3602b83612688565b9150612eae82612e47565b604082019050919050565b60006020820190508181036000830152612ed281612e96565b9050919050565b7f4879706572626f783a20696e76616c696420746f6b656e204944000000000000600082015250565b6000612f0f601a83612688565b9150612f1a82612ed9565b602082019050919050565b60006020820190508181036000830152612f3e81612f02565b9050919050565b7f455243373231456e756d657261626c653a20676c6f62616c20696e646578206f60008201527f7574206f6620626f756e64730000000000000000000000000000000000000000602082015250565b6000612fa1602c83612688565b9150612fac82612f45565b604082019050919050565b60006020820190508181036000830152612fd081612f94565b9050919050565b7f4e487b7100000000000000000000000000000000000000000000000000000000600052603260045260246000fd5b7f4552433732313a20696e76616c696420746f6b656e2049440000000000000000600082015250565b600061303c601883612688565b915061304782613006565b602082019050919050565b6000602082019050818103600083015261306b8161302f565b9050919050565b7f4552433732313a2061646472657373207a65726f206973206e6f74206120766160008201527f6c6964206f776e65720000000000000000000000000000000000000000000000602082015250565b60006130ce602983612688565b91506130d982613072565b604082019050919050565b600060208201905081810360008301526130fd816130c1565b9050919050565b7f4879706572626f783a206e6f74206f776e657200000000000000000000000000600082015250565b600061313a601383612688565b915061314582613104565b602082019050919050565b600060208201905081810360008301526131698161312d565b9050919050565b7f7b226e616d65223a224879706572626f78205374617465202300000000000000815250565b600081905092915050565b60006131ac8261267d565b6131b68185613196565b93506131c6818560208601612699565b80840191505092915050565b7f222c226465736372697074696f6e223a224879706572626f782053746174652060008201527f2300000000000000000000000000000000000000000000000000000000000000602082015250565b600061322e602183613196565b9150613239826131d2565b602182019050919050565b7f222c226261636b67726f756e645f636f6c6f72223a22303030303030222c226560008201527f787465726e616c5f75726c223a2268747470733a2f2f66756e64616f6d656e7460208201527f616c2e636f6d2f222c22696d616765223a2268747470733a2f2f66756e64616f60408201527f6d656e74616c2e636f6d2f677261766974796d61702f3230343878323034382e60608201527f676966222c2261747472696275746573223a5b5d7d0000000000000000000000608082015250565b6000613312609583613196565b915061331d82613244565b609582019050919050565b600061333382613170565b60198201915061334382856131a1565b915061334e82613221565b915061335a82846131a1565b915061336582613305565b91508190509392505050565b7f4f776e61626c653a206e6577206f776e657220697320746865207a65726f206160008201527f6464726573730000000000000000000000000000000000000000000000000000602082015250565b60006133cd602683612688565b91506133d882613371565b604082019050919050565b600060208201905081810360008301526133fc816133c0565b9050919050565b7f4552433732313a207472616e736665722066726f6d20696e636f72726563742060008201527f6f776e6572000000000000000000000000000000000000000000000000000000602082015250565b600061345f602583612688565b915061346a82613403565b604082019050919050565b6000602082019050818103600083015261348e81613452565b9050919050565b7f4552433732313a207472616e7366657220746f20746865207a65726f2061646460008201527f7265737300000000000000000000000000000000000000000000000000000000602082015250565b60006134f1602483612688565b91506134fc82613495565b604082019050919050565b60006020820190508181036000830152613520816134e4565b9050919050565b7f4f776e61626c653a2063616c6c6572206973206e6f7420746865206f776e6572600082015250565b600061355d602083612688565b915061356882613527565b602082019050919050565b6000602082019050818103600083015261358c81613550565b9050919050565b7f4552433732313a20617070726f766520746f2063616c6c657200000000000000600082015250565b60006135c9601983612688565b91506135d482613593565b602082019050919050565b600060208201905081810360008301526135f8816135bc565b9050919050565b7f4552433732313a207472616e7366657220746f206e6f6e20455243373231526560008201527f63656976657220696d706c656d656e7465720000000000000000000000000000602082015250565b600061365b603283612688565b9150613666826135ff565b604082019050919050565b6000602082019050818103600083015261368a8161364e565b9050919050565b7f4e487b7100000000000000000000000000000000000000000000000000000000600052601260045260246000fd5b600081519050919050565b600082825260208201905092915050565b60006136e7826136c0565b6136f181856136cb565b9350613701818560208601612699565b61370a816126cc565b840191505092915050565b600060808201905061372a60008301876127cd565b61373760208301866127cd565b6137446040830185612863565b818103606083015261375681846136dc565b905095945050505050565b600081519050613770816125ee565b92915050565b60006020828403121561378c5761378b6125b8565b5b600061379a84828501613761565b91505092915050565b7f455243373231456e756d657261626c653a20636f6e736563757469766520747260008201527f616e7366657273206e6f7420737570706f727465640000000000000000000000602082015250565b60006137ff603583612688565b915061380a826137a3565b604082019050919050565b6000602082019050818103600083015261382e816137f2565b9050919050565b7f4552433732313a206d696e7420746f20746865207a65726f2061646472657373600082015250565b600061386b602083612688565b915061387682613835565b602082019050919050565b6000602082019050818103600083015261389a8161385e565b9050919050565b7f4552433732313a20746f6b656e20616c7265616479206d696e74656400000000600082015250565b60006138d7601c83612688565b91506138e2826138a1565b602082019050919050565b60006020820190508181036000830152613906816138ca565b9050919050565b7f4e487b7100000000000000000000000000000000000000000000000000000000600052601160045260246000fd5b600061394782612738565b915061395283612738565b9250828210156139655761396461390d565b5b828203905092915050565b7f4e487b7100000000000000000000000000000000000000000000000000000000600052603160045260246000fdfea2646970667358221220f10a43042fe8c9726e68ec14a9782fadcef69f8dd8a8cde51b33694f26c9f1dd64736f6c634300080d0033",
  "immutableReferences": {},
  "source": "// SPDX-License-Identifier: MIT\npragma solidity ^0.8.9;\nimport \"@openzeppelin/contracts/token/ERC721/ERC721.sol\";\nimport \"@openzeppelin/contracts/token/ERC721/extensions/ERC721Enumerable.sol\";\nimport \"@openzeppelin/contracts/token/ERC721/extensions/ERC721Burnable.sol\";\nimport \"@openzeppelin/contracts/access/Ownable.sol\";\nimport \"@openzeppelin/contracts/utils/Counters.sol\";\nimport \"@openzeppelin/contracts/utils/Strings.sol\";\nimport \"@openzeppelin/contracts/utils/Context.sol\";\n\ncontract HyperboxStateToken is ERC721, ERC721Enumerable, ERC721Burnable, Ownable {\n  using Counters for Counters.Counter;\n\n  Counters.Counter private _tokenIdCounter;\n\n\tmapping(uint256 => string) private _states;\n\n\tevent StateChanged(uint256 indexed tokenId);\n\n  constructor() ERC721(\"HyperboxState\", \"HBST\") {}\n\n  function mint(address to) public {\n    _tokenIdCounter.increment();\n    uint256 tokenId = _tokenIdCounter.current();\n    _safeMint(to, tokenId);\n  }\n\n  // required by interfaces\n  function _beforeTokenTransfer(address from, address to, uint256 tokenId, uint256 batchSize) internal override(ERC721, ERC721Enumerable) {\n    super._beforeTokenTransfer(from, to, tokenId, batchSize);\n  }\n  function supportsInterface(bytes4 interfaceId) public view override(ERC721, ERC721Enumerable) returns (bool) {\n    return super.supportsInterface(interfaceId);\n  }\n\n\t// Based on: https://docs.opensea.io/docs/metadata-standards\n  function tokenURI(uint256 tokenId) public view override (ERC721) returns (string memory) {\n\t\trequire(_exists(tokenId), 'Hyperbox: invalid token ID');\n    return string.concat(\n      '{'\n        '\"name\":\"Hyperbox State #', Strings.toString(tokenId), '\",'\n        '\"description\":\"Hyperbox State #', Strings.toString(tokenId), '\",'\n        '\"background_color\":\"000000\",'\n        '\"external_url\":\"https://fundaomental.com/\",'\n        '\"image\":\"https://fundaomental.com/gravitymap/2048x2048.gif\",'\n        '\"attributes\":[]'\n      '}'\n\t\t);\n\t}\n\n  function setState(uint256 tokenId, string calldata state) public {\n\t\trequire(_exists(tokenId), 'Hyperbox: invalid token ID');\n\t\trequire(_ownerOf(tokenId) == _msgSender(), 'Hyperbox: not owner');\n    _states[tokenId] = state;\n    emit StateChanged(tokenId);\n\t}\n\n  function getState(uint256 tokenId) public view returns (string memory) {\n\t\trequire(_exists(tokenId), 'Hyperbox: invalid token ID');\n    return _states[tokenId];\n\t}\n\n}\n",
  "sourcePath": "/Users/roger/Dev/Blockchain/fDm/hyperbox-contracts/contracts/HyperboxStateToken.sol",
  "compiler": {
    "name": "solc",
    "version": "0.8.13+commit.abaa5c0e.Emscripten.clang"
  },
  "schemaVersion": "3.4.13",
  "updatedAt": "2023-04-14T00:29:17.349Z",
  "networkType": "ethereum",
  "devdoc": {
    "kind": "dev",
    "methods": {
      "approve(address,uint256)": {
        "details": "See {IERC721-approve}."
      },
      "balanceOf(address)": {
        "details": "See {IERC721-balanceOf}."
      },
      "burn(uint256)": {
        "details": "Burns `tokenId`. See {ERC721-_burn}. Requirements: - The caller must own `tokenId` or be an approved operator."
      },
      "getApproved(uint256)": {
        "details": "See {IERC721-getApproved}."
      },
      "isApprovedForAll(address,address)": {
        "details": "See {IERC721-isApprovedForAll}."
      },
      "name()": {
        "details": "See {IERC721Metadata-name}."
      },
      "owner()": {
        "details": "Returns the address of the current owner."
      },
      "ownerOf(uint256)": {
        "details": "See {IERC721-ownerOf}."
      },
      "renounceOwnership()": {
        "details": "Leaves the contract without owner. It will not be possible to call `onlyOwner` functions anymore. Can only be called by the current owner. NOTE: Renouncing ownership will leave the contract without an owner, thereby removing any functionality that is only available to the owner."
      },
      "safeTransferFrom(address,address,uint256)": {
        "details": "See {IERC721-safeTransferFrom}."
      },
      "safeTransferFrom(address,address,uint256,bytes)": {
        "details": "See {IERC721-safeTransferFrom}."
      },
      "setApprovalForAll(address,bool)": {
        "details": "See {IERC721-setApprovalForAll}."
      },
      "symbol()": {
        "details": "See {IERC721Metadata-symbol}."
      },
      "tokenByIndex(uint256)": {
        "details": "See {IERC721Enumerable-tokenByIndex}."
      },
      "tokenOfOwnerByIndex(address,uint256)": {
        "details": "See {IERC721Enumerable-tokenOfOwnerByIndex}."
      },
      "tokenURI(uint256)": {
        "details": "See {IERC721Metadata-tokenURI}."
      },
      "totalSupply()": {
        "details": "See {IERC721Enumerable-totalSupply}."
      },
      "transferFrom(address,address,uint256)": {
        "details": "See {IERC721-transferFrom}."
      },
      "transferOwnership(address)": {
        "details": "Transfers ownership of the contract to a new account (`newOwner`). Can only be called by the current owner."
      }
    },
    "version": 1
  },
  "userdoc": {
    "kind": "user",
    "methods": {},
    "version": 1
  }
}